S01300006C6162334573636C61766F2E73726563E2
S11300000C9443000C944D000C944D000C944D0042
S11300100C944D000C944D000C944D000C944D0028
S11300200C944D000C944D000C944D000C944D0018
S11300300C944D000C944D000C944D000C944D0008
S11300400C944D000C944D000C944D000C944D00F8
S11300500C944D000C944D000C944D000C944D00E8
S11300600C944D000C944D00590064007200800003
S11300708E009C00AA00B3001F0126012D01370148
S113008041014B01550111241FBECFEFD8E0DEBF63
S1130090CDBF0E94EF000C9482010C94000090E00C
S11300A08830910508F067C0FC01EC5CFF4F0C94AC
S11300B07C01EEE7F0E0808181608083ECE7F0E092
S11300C08081887F808357C0ECE7F0E08081887F5F
S11300D08083808181608083EEE7F0E080818260AC
S11300E0808349C0ECE7F0E08081887F8083808151
S11300F082608083EEE7F0E08081846080833BC08F
S1130100ECE7F0E08081887F808380818360808356
S1130110EEE7F0E08081886080832DC0ECE7F0E0BA
S11301208081887F8083808184608083EEE7F0E033
S11301308081806180831FC0ECE7F0E08081887F4C
S11301408083808185608083EEE7F0E08081806237
S1130150808311C0ECE7F0E08081887F8083808118
S11301608660808308C0ECE7F0E08081887F80832C
S1130170808187608083ECE7F0E080818062808307
S1130180808180648083EAE7F0E0808188608083F6
S1130190808187608083808180688083089520E0E7
S11301A040E060E080E40E94070184E00E944F0088
S11301B085E00E944F000895ECE7F0E09081907F85
S11301C08F70892B8083EAE7F0E0808180648083EC
S11301D080917A0086FDFCCF8091790008950E9479
S11301E0CF000E946E01892BE1F30E9477018130D8
S11301F031F484E00E94DC000E946C01F2CF823072
S113020081F785E00E94DC000E946C01EACFE82FB0
S113021084FF52C084B18C6284B984B18F7E84B966
S11302208CB580618CBDE7708E2F90E0873091058E
S113023008F04BC0FC01E45CFF4F0C947C018CB5CE
S11302408C7F8CBD8DB581608DBD3FC08CB58C7F9E
S11302508CBD8DB58E7F8DBD38C08CB581608CBD55
S11302608CB58D7F8CBD8DB581608DBD2EC08CB558
S113027081608CBD8CB58D7F8CBD8DB58E7F8DBD21
S113028024C08CB58E7F8CBD8CB582608CBD8DB541
S113029081608DBD1AC08CB58E7F8CBD8CB582609B
S11302A08CBD8DB58E7F8DBD10C08CB583608CBD2B
S11302B08DB58E7F8DBD09C084B1806184B984B150
S11302C0837D84B98CB58F7E8CBD8CB5462B242B55
S11302D0282B20642CBD08958EBD08950DB407FE0F
S11302E003C081E090E0089580E090E008950DB4AB
S11302F007FEFDCF8EB50895EE0FFF1F0590F49114
S10B0300E02D0994F894FFCFED
S9030000FC
