:100000000C943B000C9450000C9450000C94500045
:100010000C9450000C9450000C9450000C94500020
:100020000C9450000C9450000C9450000C94500010
:100030000C9450000C9450000C9450000C94500000
:100040000C9450000C9450000C9450000C945000F0
:100050000C9450000C9450000C9450000C945000E0
:100060000C9450000C9450001A0121012801320117
:100070003C014601500111241FBECFEFD8E0DEBF86
:10008000CDBF11E0A0E0B1E0E6EFF3E002C00590E3
:100090000D92A033B107D9F70E94FD000C94F9012D
:1000A0000C94000020E040E060E083E50E94020143
:1000B00080E00E946E0180E091E00E94850187B19E
:1000C0008F6387B98AB180668AB90895982F9F7324
:1000D00098B92BB1807C90E095958795922F9F7968
:1000E000892B8BB90895CF93DF93CDB7DEB72E97C9
:1000F0000FB6F894DEBF0FBECDBF81E00E9467014E
:100100008FE39CE90197F1F700C000000E946901AC
:100110004AE0BE016F5F7F4F90E00E94BC0180E12A
:1001200091E00E948501CE0101960E9485018DE03B
:1001300091E00E94850182E00E9467018FE39CE9C3
:100140000197F1F700C000000E9469014AE0BE017A
:100150006F5F7F4F90E00E94BC0187E191E00E94B9
:100160008501CE0101960E9485018DE091E00E94FB
:1001700085018091C000882374F51B861C861D862E
:100180001E8620E010C08091C60090ED980F9A3036
:1001900050F4233040F4EBE0F0E0EC0FFD1FE20FF1
:1001A000F11D80832F5F8091C000882364F3222398
:1001B00091F0CE010B960E949E010E9466008EE196
:1001C00091E00E948501CE010B960E9485018DE091
:1001D00091E00E9485019FEF23ED80E39150204044
:1001E0008040E1F700C000002E960FB6F894DEBF05
:1001F0000FBECDBFDF91CF9108950E9452000E94A3
:100200007300FDCFE82F84FF52C084B18C6284B9A3
:1002100084B18F7E84B98CB580618CBDE7708E2FE0
:1002200090E08730910508F04BC0FC01EC5CFF4F7B
:100230000C9498018CB58C7F8CBD8DB581608DBD83
:100240003FC08CB58C7F8CBD8DB58E7F8DBD38C089
:100250008CB581608CBD8CB58D7F8CBD8DB581607A
:100260008DBD2EC08CB581608CBD8CB58D7F8CBD55
:100270008DB58E7F8DBD24C08CB58E7F8CBD8CB529
:1002800082608CBD8DB581608DBD1AC08CB58E7FAE
:100290008CBD8CB582608CBD8DB58E7F8DBD10C040
:1002A0008CB583608CBD8DB58E7F8DBD09C084B14A
:1002B000806184B984B1837D84B98CB58F7E8CBD17
:1002C0008CB5462B242B282B20642CBD08958EBD85
:1002D00008950DB407FEFDCF8EB50895811114C0A9
:1002E0008AB18E7F8AB98AB182608AB91092C000C1
:1002F00088E18093C10086E08093C20087E690E0A9
:100300009093C5008093C4000895BC0120E030E0C4
:1003100008C09091C00095FFFCCF4093C6002F5FAE
:100320003F4FFB01E20FF31F40814111F2CF0895CF
:10033000EE0FFF1F0590F491E02D0994FC01882732
:100340009927E89421912032E9F3293010F02E30DA
:10035000C8F32B3241F02D3239F4689404C00E9466
:10036000C701820F911D219120532A30C0F31EF442
:10037000909581959F4F0895BB274A3031F499237A
:1003800022F4BDE2909581959F4F0C94D0017AE0C4
:10039000979F902D879F802D910D11240895BB2745
:1003A000FB015527AA27880F991FAA1FA41710F031
:1003B000A41B83955051B9F7A05DAA3308F0A95D3D
:1003C000A193009779F7B111B1931192CB010C94DD
:1003D000E901DC01FC01672F71917723E1F7329786
:1003E00004C07C916D9370836291AE17BF07C8F310
:0603F0000895F894FFCF10
:1003F6005541525420496E6963696164610D0A0072
:10040600506F74313A2000506F74323A20005661B2
:100416006C6F7220726563696269646F3A200000CE
:00000001FF
